:100000000C94ED020C9434030C9434030C94332AB6
:100010000C9434030C9434030C9434030C94340384
:100020000C9434030C9434030C94A90F0C94DD1439
:100030000C941A230C9434030C9434030C9434035E
:100040000C9434030C9434030C9434030C94340354
:100050000C9434030C9480100C9434030C943403EB
:100060000C9434030C9434030C9434030C94340334
:100070000C9434030C9434030C9434030C94340324
:100080000C9434030C9434030C9434030C94340314
:100090000C9434030C9434030C9434030C94340304
:1000A0000C9434030C9434030C94340300050105C0
:1000B0000205030504050505000601060206030600
:1000C00004060506000701070207030704070507E2
:1000D00000080108020803080408050800090109CE
:1000E00002090309040905090000010002000300D8
:1000F00004000500000101010201030104010501E2
:1001000000020102020203020402050200030103CD
:1001100002030303040305030004010402040304AF
:1001200004040504165C14001A00080015001700EA
:10013000266104001600070009000A0027641D005C
:100140001B00060019000500366237686C5D6D5DA6
:100150002843904491682B642C612A62F100AE0020
:100160003100130012000C0018001C003400330092
:100170000F000E000D000B000000380037003600A5
:10018000100011000000000000000000000000004E
:10019000000000000000000000000F7801000100D6
:1001A0000100010001000100140001000100010034
:1001B000010001002B00010001000100010001000D
:1001C00010500100F100F2000100010001000100E7
:1001D0000100010001000100010001000100010017
:1001E0000100010001000100010001000100010007
:1001F00001000100010001000100010001000100F7
:10020000010001000100010028002A002C0001006B
:10021000010001002F0023002400250026002700F4
:1002200030641C0018000C001200130031010B0098
:100230000D000E000F0033001050110010003600AA
:1002400037000100286401000100010001000100E5
:10025000000000000000000000000000000000009E
:10026000000000000000000000000000000000008E
:10027000000000000000000000000000000000007E
:10028000000000000000000000000100CA5CBC008B
:100290002F0052003000F200CB5CBB6250005100D6
:1002A0004F00F100CC5CC45C4A004C004D00F300F0
:1002B000CD5CC55CB600B70001001250C35CB40051
:1002C000466111500100010069006800FB00ED006B
:1002D000F900F2006B006A00F000EE00EF00F100A0
:1002E0006D006C00FC000000FA00F300000000004C
:1002F00000000000F500F400000000000000000015
:1003000000000100350031002400250026002700F0
:10031000330034612100220023002E003A0038000F
:100320001E001F0020002D003B003C003D003E0051
:100330003F000100400041004264436201000100AF
:10034000000000004B0052004A0046000000000080
:100350004F00510050000000000000004E004C0013
:100360004D00000000000000000000000000000040
:1003700000000000000000000000010000DA02811F
:10038000FFD9F1DB20A4A62EAF00A0C000A1C800B9
:10039000AED580A81FD300408D1420006432140015
:1003A000AE0001010101010101010102020202028C
:1003B000020202020303030303030303040404040D
:1003C00004040405050505050606060606070707D5
:1003D000070708080808090909090A0A0A0B0B0B8C
:1003E0000C0C0C0D0D0D0E0E0E0F0F0F1010111129
:1003F00011121213131414151516161717181819AD
:10040000191A1A1B1B1C1D1D1E1E1F202021222213
:10041000232424252626272829292A2B2C2D2D2E56
:100420002F30313232333435363738393A3B3C3D70
:100430003E3F404142434445464748494A4C4D4E61
:100440004F50515354555658595A5B5D5E5F616227
:1004500064656668696B6C6D6F7072737577787AB6
:100460007B7D7E8082838587888A8C8E8F91939511
:1004700096989A9C9EA0A2A3A5A7A9ABADAFB1B335
:10048000B5B7BABCBEC0C2C4C6C9CBCDCFD1D4D615
:10049000D8DBDDDFE2E4E7E9EBEEF0F3F5F8FAFDB7
:1004A000FF00AF05010902A10185020901A10005B4
:1004B0000919012908150025019508750181020512
:1004C00001093009311581257F95027508810609DA
:1004D000381581257F950175088106050C0A3802BB
:1004E0001581257F950175088106C0C00501098029
:1004F000A101850319012AB700150126B70095014E
:1005000075108100C0050C0901A101850419012A9B
:10051000A002150126A002950175108100C00501F9
:100520000906A101050719E029E71500250195082D
:10053000750181029501750881010507190029FFE0
:10054000150026FF00950675088100050819012988
:1005500005950575019102950175039101C0090288
:100560003B00020100A0FA090400000103010100A0
:100570000921110100012240000705810308000A3A
:1005800009040100010300000009211101000122FA
:100590007B000705820320000A1201000200000010
:1005A0000832FC87020100010200010C0353006FB6
:1005B0000066006C00650000001A034A006F0073BB
:1005C00000650066004100640061006D0063006921
:1005D000006B000000040309040011241FBECFEFCC
:1005E000DAE0DEBFCDBF04B603FE27C08091F1057F
:1005F0009091F205A091F305B091F4058730904BEE
:10060000A740B04BD1F41092F1051092F205109270
:10061000F3051092F40514BE84B7877F84BF0FB62C
:10062000F894A89580916000886180936000109292
:1006300060000FBEE0E0F8E3099511E0A0E0B1E052
:10064000E6E4FDE502C005900D92AA3BB107D9F79B
:1006500025E0AAEBB1E001C01D92A13FB207E1F78E
:100660000E9441230C94762E0C940000E8EDF0E0FB
:1006700080818E7F80831092E2001092DA001092C7
:10068000E100A0EEB0E08C9181608C9380818F7747
:10069000808319BCA7EDB0E08C918E7F8C93808114
:1006A0008F7E80831092CE0508952091E4003091D2
:1006B000E50095E6A9012091EC00822F817020FFD2
:1006C00006C08091E80080FF06C080E00895209178
:1006D000E80022FD1AC08091DB05882389F085306F
:1006E00089F08091EB0085FD0FC02091E4003091EE
:1006F000E50042175307F9F29150E1F684E00895BE
:1007000082E0089583E0089581E00895EF92FF92DA
:100710000F931F93CF937C018B010E945503C82F29
:10072000811117C08091E80085FD0BC08091E80021
:100730008E778093E8000E945503882399F3C82F91
:1007400008C0F70181917F018093F10001501109E8
:1007500049F78C2FCF911F910F91FF90EF90089543
:100760008091DD0587FF13C08091E80082FF06C0FD
:100770008091E8008B778093E80004C08091DB05CE
:100780008111F2CF08958091DB058823D9F3809100
:10079000E80080FFF8CF8091E8008E77ECCF982FAB
:1007A0009093E900242F762F50E0891731F0709153
:1007B000EC002091ED005091F00021FD07C09F5FFB
:1007C000973071F78093E90081E008953091EB0054
:1007D0003E7F3093EB003091ED003D7F3093ED0094
:1007E0003091EB0031603093EB007093EC0020937C
:1007F000ED005093F0002091EE0027FDE0CF80E067
:100800000895CF92DF92EF92FF920F931F93CF93B1
:10081000DF93C8EDD0E088818F7E8883E7EDF0E03C
:1008200080818160808384E082BF81E08093CE05F7
:1008300088818E7F888302EE10E0F801108210928A
:10084000DA0081EEC82ED12CF601108288818F77D4
:10085000888388818068888388818F7D888319BC9C
:100860001092DB051092DC051092DA051092D90582
:1008700090EEE92EF12CF70180818B7F80838881B7
:100880008160888342E060E080E00E94CF03F6014F
:1008900080818E7F8083F801808181608083808168
:1008A00088608083F70180818E7F8083888180616A
:1008B0008883DF91CF911F910F91FF90EF90DF9090
:1008C000CF900895FC018091E3059091E40586178F
:1008D0009707A0F06115710529F49091E8009E77C3
:1008E0009093E80090E06115710551F4911108C0F2
:1008F0008091E80082FF34C080E00895BC01F2CF0F
:100900008091DB058823C1F18530C1F18091E80039
:1009100083FD30C08091E80082FDEACF8091E8003D
:1009200080FFE1CF8091F3002091F200382F611514
:10093000710519F02830310558F091E02830310563
:1009400009F090E02091E8002E772093E800CBCFCB
:1009500081918093F100615071092F5F3F4FE7CF84
:100960008091DB05882341F0853041F08091E800DB
:1009700083FFBECF81E0089582E0089583E008956B
:100980008091D00508952FB7F8946091C7057091B4
:10099000C8058091C9059091CA052FBF08959C0193
:1009A000FC0132969FEF80E04191461751F09F3F46
:1009B00019F4411101C0982F8F5F8630A9F79F3F2E
:1009C00009F40895290F311D97FD3A95F9016283C5
:1009D00008952091C0053091C1052817390771F09D
:1009E0009093C1058093C005E091BE05F091BF05CD
:1009F000309721F00084F185E02D0994089520912D
:100A0000BC053091BD052817390771F09093BD05DD
:100A10008093BC05E091BE05F091BF05309721F0B1
:100A20000680F781E02D09940895FC01680F791F75
:100A30008FEF91E32191822728E030E087FF09C002
:100A4000880F892721503109C9F7E617F70791F771
:100A50000895880FF7CFFA01811101C0FB010994B5
:100A60000895EBEDF4E01182828184608283089521
:100A70008091E805982F9E7F61F481708260809359
:100A8000E8058091EB05873918F086E98093EB053E
:100A900008958031B0F381708E60F1CFAF92BF9234
:100AA000DF92EF92FF920F931F93CF93DF93082F64
:100AB000162FE901E42FF0E0EF55FC4F611110C053
:100AC000E4915E2F4E2F4983E8835A83DF91CF91C3
:100AD0001F910F91FF90EF90DF90BF90AF9008951E
:100AE000E62EF12C4491D42EE42FF0E026E0829FF4
:100AF000C00111242FEF30E0B9010E94AD2B802FEF
:100B000090E0880F991F55E5569FD001579FB00D73
:100B100011248A1B9B0B982F990F890F5901AE182E
:100B2000BF08AE9ED001AF9EB00DBE9EB00D112489
:100B30005B2F189F80011124012F11275901A01A42
:100B4000B10AAE9E8001AF9E100DBE9E100D112405
:100B50005901A81AB108AE9CC001AF9C900DBE9C73
:100B6000900D1124892F9927281B390B2E9FC00126
:100B70002F9F900D3E9F900D1124E92F623071053B
:100B8000A1F050F46115710509F49DCF6130710534
:100B900081F0EB2F512F97CF6430710569F080F011
:100BA0006630710509F48FCFF4CFE42F4B2F592F06
:100BB0008ACFE42F412F87CFEB2F542F492F83CF9C
:100BC0004B2F5D2DE12F7FCF4091D1048D3E59F405
:100BD0008091D20487FF0DC01092D20441110BC046
:100BE0001092C90408C08E3E81F48091D204181678
:100BF0009CF3442381F08091D3049091D404892BF9
:100C000009F05AC01092C80408958F3E49F447FF76
:100C1000F0CF1092D1048091D2048111ECCFE0CFBB
:100C2000803F19F41416ACF3E4CF9091D304893FBC
:100C300029F41916F4F61092D304DBCF8A3F19F485
:100C400097FFD7CFF8CF9091D4048B3F29F497FF2B
:100C5000D0CF1092D404CDCF8C3F19F41916CCF319
:100C6000C8CF9FE0980F983090F4815F990B21E0F6
:100C700030E0B90102C0660F771F8A95E2F7CB0119
:100C800080959091D00489238093D004B2CF8D3F7A
:100C900031F48091CA048E7F8093CA04AACF8E3F1C
:100CA00021F48091CA048D7FF7CF8F3F09F0A1CF47
:100CB0008091CA048B7FF0CF08958091CA0480FD93
:100CC00016C081FD16C082FD16C08091C80488231D
:100CD000A1F0883280F428E0829FC001112468E2EC
:100CE00070E00E94C12B862F672B39F0089582E0B7
:100CF000089584E0089588E0089581E00895809142
:100D0000CA0480FD14C081FD14C082FD16C080910C
:100D1000C904882381F0843180F422E3829FC001DA
:100D2000112464E170E00E94C12B862F08958CE0AD
:100D3000089589E1089585E0089582E308958D3E40
:100D400031F40E947F0681958093D20408958E3EEF
:100D500019F40E947F06F8CF8F3E31F40E947F067F
:100D600081958093D1040895803F19F40E947F06F5
:100D7000F8CF893F29F40E945D068093D30408953B
:100D80008A3F21F40E945D068195F7CF8B3F31F4B5
:100D90000E945D0681958093D40408958C3F19F4D8
:100DA0000E945D06F8CF9FE0980F983070F4815F45
:100DB000990B21E030E001C0220F8A95EAF780917B
:100DC000D004822B8093D00408958D3F31F480911C
:100DD000CA0481608093CA0408958E3F21F48091F3
:100DE000CA048260F7CF8F3FB9F78091CA0484604C
:100DF000F1CF80E0089578940895F894E82FE29573
:100E0000EF70F0E031A1282F2F7081E090E001C059
:100E1000880F2A95EAF7982F9095932391A392A192
:100E2000892B82A30C94FB069091730292FF06C05B
:100E3000282F28712830F9F4877F846093FF06C03B
:100E4000282F28712831F1F4877E84612091740263
:100E500020FF06C0382F38713830D9F4877F816081
:100E600021FF06C0282F28712831D1F4877E8161A7
:100E700094FD877E0895282F24712430F9F68B7F06
:100E80008860DCCF282F2471243101F78B7E8861A4
:100E9000DDCF382F3171313019F78E7F8860E0CF88
:100EA000282F2171213121F78E7E8861E1CFCF93E8
:100EB000DF93EC0182389105A9F1D8F581339105D2
:100EC00009F496C048F58932910509F48AC08A97D9
:100ED00009F495C0C11522E5D20708F0C1C0C115BB
:100EE00031E5D30708F031C1C83ED10508F09CC0F8
:100EF000C03ED10560F5C83AD10508F087C0C53AB3
:100F0000D10508F0FDC0C130D10509F12097F9F0F5
:100F1000C430D105E0F440C08533910509F45AC0CE
:100F2000C997C1F680917302837089F0C0EED0E05A
:100F30000EC0833E910599F170F4803E910501F158
:100F4000823E910539F68091730282FD21C0CE0167
:100F5000DF91CF910895863E910561F1873E91051D
:100F600071F1843E910509F0B5CF8091740281FF43
:100F7000EECF80917302C7EED0E084FD0DC0E7CFC5
:100F80008091730280FD17C19091740290FFDFCFB2
:100F9000C3EED0E084FFDBCFD0E0C0E0D8CF8091BB
:100FA000730282FD0BC19091740290FDBFCF84FF4C
:100FB000CECFF2CF8091730283FDDDCFC8CF809179
:100FC000730283FDFEC09091740291FFF0CFC4EED6
:100FD000D0E0BDCF8091730285FFB9CFC9E2D0E0E8
:100FE000B6CF8091730285FFB2CFC5E3D0E0AFCF1B
:100FF0008091730286FFABCFCAE2D0E0A8CF809188
:10100000730286FFA4CFC1E3D0E0A1CFCF3BD105CF
:1010100018F6C85AD0E0CC0FDD1FC65ADE4F099033
:10102000D881C02DD46493CFC11540E2D40758F4C1
:10103000C11581E0D80708F08ACFCD3ED10508F46C
:10104000ABCFD06584CFC11590E4D90708F4A4CF05
:10105000C11520E5D20708F05BC0DF70D06A77CFFA
:10106000C11536E5D30718F5C11545E5D40708F0D5
:1010700084C0C11584E5D80708F07AC09C2F9695E6
:1010800096959E0123703327C115D34508F462C09D
:10109000C1E0D0E002C0CC0FDD1F2A95E2F730E2BC
:1010A000939FC0011124C82BD92BDA6850CFC115EA
:1010B00089E5D80768F4C11598E5D90708F068C034
:1010C000C11527E5D20708F067CFDD27D0663FCFEF
:1010D000C1153AE5D30708F460C0CE0190568115DA
:1010E000904208F059CF8D2F8F710E94140790E025
:1010F000982F882788279F719C012C2BE90146C0D7
:10110000C55AD0E0C95ADE4FC881D0E0D0641FCFA5
:10111000CE01E4E096958795EA95E1F783702C2F50
:1011200026952695237090E2299F90011124382B53
:101130008C2F8370C1E0D0E002C0CC0FDD1F8A95F8
:10114000E2F7C22BD32BDC6802CFDC2FCC27C16F98
:10115000D06AFDCEC1E0D0E002C0CC0FDD1F2A95E1
:10116000E2F720E2929FC0011124C82BD92BEBCFCC
:10117000DC2FCC27C46FD06AEACE8C2F0E941407D4
:10118000C82FD0E0DC2FCC27CC27DF71D062DFCE98
:10119000DC2FCC27C06FD06ADACE8C2F8F700E94E4
:1011A000140734E0D695C7953A95E1F7CF709C2F98
:1011B000EC01D069CCCEC9E3D0E0C9CEC2EED0E01C
:1011C000C6CEC6EED0E0C3CE0C94C30480913702E5
:1011D0008111109237020895809136029091350264
:1011E000892B90913402892B8093BC019091370216
:1011F000992391F0892B8093BC0120E08EEB91E044
:10120000FC013191CF0131112F5FF1E0843C9F0748
:10121000B9F721110E94E608E091BE05F091BF05E3
:10122000309731F00280F381E02D8CEB91E009944E
:1012300008958091320290910102981301C008959F
:101240008F5F8770FACFAF92BF92CF92DF92EF920B
:10125000FF920F931F93CF93DF93C090ED05D09033
:10126000EE05E090EF05F090F005409138025091C6
:10127000390260913A0270913B02C42AD52AE62ACB
:10128000F72ACFE1D0E0082F10E026E0929F000D72
:10129000111D11249CE3A92EBC2ED701C6010C2ED2
:1012A00004C0B695A795979587950A94D2F780FDC7
:1012B0000FC0219788F7B12C8B2DDF91CF911F9113
:1012C0000F91FF90EF90DF90CF90BF90AF90089577
:1012D000AC9EF001AD9EF00D1124E00FF11FEE0F5A
:1012E000FF1FEC5DFE4F859194910E945707019777
:1012F00001F3E2CFCF93DF93EC010E942309EC2F9F
:10130000F0E096E0D99FE00DF11D11249CE3899F48
:10131000E00DF11D1124EE0FFF1FEC5DFE4F8591D6
:101320009491DF91CF910C945707E92FEE0FE90FBD
:10133000EE0F8E0F982F977086958695869525E0EF
:10134000829FF0011124EF52FE4F50E040E080E018
:10135000219130E0092E02C0369527950A94E2F7D4
:1013600021703327042E01C0220F0A94EAF7822B42
:101370004F5F5F4F4530510559F70895E92FEE0F44
:10138000E90FEE0F8E0F982F977041E001C0440FC8
:101390009A95EAF786958695869595E0899FF0015E
:1013A0001124EF52FE4F30E020E070E05191DF0158
:1013B0001197CB01022E02C0969587950A94E2F709
:1013C000817081958527842385278C932F5F3F4FDC
:1013D0002530310559F70895FC01808191810E94E3
:1013E0007A09292F2F7092959F7092509E3078F431
:1013F000E92FF0E0E858F14D0C94F42B803F19F000
:1014000020F4883E20F481E00895843FE1F380E0F9
:101410000895883EC0F3813FD1F7F5CF822F86959E
:10142000869586950895882341F08095909136029F
:101430008923809336020C94EC080895882339F0B0
:1014400090913602982B909336020C94EC080895F4
:101450009091DB05943031F58093CB057093CD05E9
:101460006093CC0582E08093E9008FEF9091E800D3
:10147000815095FD06C095ED9A95F1F70000811118
:10148000F5CF8091E80085FF0DC050E040E063E0BB
:1014900070E08BEC95E00E9486038091E8008E77E7
:1014A0008093E8000895BC0184E00C94280ABC01F4
:1014B00083E00C94280A9C0182E08093E9009FEF6E
:1014C0008091E800915085FD06C085ED8A95F1F781
:1014D00000009111F5CF8091E80085FF0CC050E02D
:1014E00040E066E070E0C9010E9486038091E80058
:1014F0008E778093E8000895CF93DF93EC0181E02D
:101500008093E9008FEF9091E800815095FD06C02F
:1015100095ED9A95F1F700008111F5CF8091E800E3
:1015200085FF14C050E040E068E070E0CE010E940A
:1015300086038091E8008E778093E80088E0FE01C2
:10154000A1EDB5E001900D928A95E1F7DF91CF9181
:101550000895609152018091E80580FF20C080913C
:10156000510143E0849FC001112482529B4F539A42
:101570002BB1277F3BB138605FB7F894FC01649FC3
:10158000E00DF11D1124BF0168177907D1F45FBF89
:101590008FE594E00197F1F700C000000895809175
:1015A00053019091540123E0829FF0011124E252F3
:1015B000FB4F8917A0F61182108212828F5F33963B
:1015C000F8CFFC014191CF01E8E03BB9000000C039
:1015D00047FF2BB9440F000000C000C000C02BB96A
:1015E00000C0EA9591F7D0CFEF92FF921F93CF936F
:1015F000DF93EC0110E0EE24EA94F12C60915501A8
:10160000161770F00E94A90A9A818C8190FF2AC057
:101610008F5F8C83DF91CF911F91FF90EF900895A2
:1016200020915301422F410F5527551FCA019A019E
:10163000220F331F280F391F22523B4F4091EB05D9
:10164000473908F046E970E0C7010E94C12B962F88
:101650008C816091EA05199F800D11240E944E052E
:101660001F5FCCCF8150D5CF9F92AF92BF92CF92C8
:10167000DF92EF92FF920F931F93CF93DF937C0142
:101680005B016A018091720201E010E08A3010F47F
:101690000AE010E0C1E0D0E0F894B501C701F6011E
:1016A0000995982E0E94FB06911004C021960C17F4
:1016B0001D076CF4892DDF91CF911F910F91FF9041
:1016C000EF90DF90CF90BF90AF909F900895CC9F08
:1016D0009001CD9F300D300D112490E080E045E366
:1016E0004A95F1F70000019682179307C1F7D4CF0E
:1016F00080914802811110C08091D8008061809350
:10170000D8008AE18A95F1F700C08091D90080FF66
:101710000AC081E08093480281E0909148029130B4
:1017200009F080E0089582E0809348020E94360329
:101730001092DB05F1CF0F931F930E94780B882343
:1017400021F01F910F910C94C3040E94C3040091D7
:10175000C2051091C3052091C4053091C505600FE5
:10176000711F821F931F1F910F9108950E94780B84
:10177000882351F0E091BE05F091BF05309721F02C
:101780000190F081E02D099480E00895CF92DF92DE
:10179000EF92FF920F931F93CF93DF936C017B0126
:1017A00064E670E088E70E948A28EC0197FD12C089
:1017B00010E000E0F601E00FF11F849164E670E0B4
:1017C0000E940429EC01892B29F40F5F1F4F0E158D
:1017D0001F0581F70E948729CE01DF91CF911F91CC
:1017E0000F91FF90EF90DF90CF900895CF93C0912D
:1017F000BA058091BB058823D1F00E94C304605ACA
:1018000075418F4F9F4F6093B6057093B7058093D6
:10181000B8059093B905C11108C062E070E081EA93
:1018200094E00E94C60B892B29F0C091BA058C2F39
:10183000CF91089581E08093BA05F7CFCF92DF92E0
:10184000EF92FF926B017C010E943805B701A6015F
:1018500088E090E0FF90EF90DF90CF900C94652CA3
:10186000EF92FF920F931F93CF93DF9300D00F92CD
:10187000CDB7DEB7082FF62E142FE22E8091E805A3
:1018800080FF4EC0E82FE695F0E0EE54FE4F9081C9
:101890009093DB048E7F823009F052C0473908F004
:1018A00046E99E012F5F3F4F6F2D802F0E944E050E
:1018B0008091E80580FF11C02B8139814A81809198
:1018C00053019091540153E0859FF0011124E2529D
:1018D000FB4F891778F10E94A90A8091E9058013CE
:1018E00008C08091EA058F1104C08091EB05811733
:1018F00029F08091DD0482608093DD040093E90586
:10190000F092EA051093EB05EE2051F06091E805A6
:101910007091E9058091EA059091EB050E941E0CFB
:101920000F900F900F90DF91CF911F910F91FF902B
:10193000EF9008954183308322838F5F3396C9CF20
:10194000923059F60091E905C8CFE8EEF5E0438101
:1019500021E1421B08F440E021E0628181810C9486
:10196000300CE8EEF5E0438121E1420F08F44FEF3F
:1019700021E0628181810C94300CE8EEF5E0628117
:1019800021E1621B08F460E021E0438181810C9435
:10199000300CE8EEF5E0628121E1620F08F46FEFB0
:1019A00021E0438181810C94300CE8EEF5E08181E7
:1019B00021E0438162818A500C94300CE8EEF5E01E
:1019C000818121E043816281865F0C94300C80919B
:1019D000EC05882319F081508093EC056091E805AF
:1019E0007091E9058091EA059091EB050C941E0C2D
:1019F0008091EC05833018F48F5F8093EC05609143
:101A0000E8057091E9058091EA059091EB050C9449
:101A10001E0CE8EEF5E085E0808311828FEF828373
:101A200086E983831482ABEDB4E012968C91129711
:101A3000836012968C9360817181828193810C9472
:101A40001E0CCF9384E090E00E943F2CC82F82E2CE
:101A500090E00E943F2C982F8C2FCF910895CF9328
:101A6000DF93CDB7DEB728970FB6F894DEBF0FBE71
:101A7000CDBF85E0E8EEF5E0DE01119601900D9214
:101A80008A95E1F78091DB049091DC04A091DD045C
:101A90008E839F83A887288540916E0250916F02A4
:101AA00060917002709171023FB7F8948091C70500
:101AB0009091C805A091C905B091CA053FBF841B8C
:101AC000950BA60BB70B84369105A105B10510F453
:101AD000222319F18091350190913601865A9D4F4C
:101AE0004091340150E04930510510F048E050E099
:101AF000BE016F5F7F4F0E94362C85E090E00E9410
:101B0000F92A892BB1F40E94C30460936E0270938A
:101B10006F0280937002909371021092DD0481E055
:101B200028960FB6F894DEBF0FBECDBFDF91CF91E0
:101B3000089580E0F5CFCF93DF9300D000D0CDB7EC
:101B4000DEB7409156025091570260915802709151
:101B500059022FB7F8948091C7059091C805A091BC
:101B6000C905B091CA052FBF841B950BA60BB70BF7
:101B700084369105A105B10568F10E949B0B6E5F4B
:101B80007F4F8F4F9F4F69837A838B839C83809194
:101B90002B0190912C01865A9D4F40912A0150E0D3
:101BA0004530510510F044E050E0BE016F5F7F4FBB
:101BB0000E94362C84E090E00E94F92A892B61F47F
:101BC0000E94C30460935602709357028093580298
:101BD0009093590281E001C080E00F900F900F9028
:101BE0000F90DF91CF9108956F927F928F929F9285
:101BF000AF92BF92CF92DF92EF92FF920F931F931B
:101C0000CF93DF930F92CDB7DEB7862E5A016901CD
:101C1000682E880F7708C3010E94F92A892B09F0E2
:101C200088C08AE0869DF001879DF00D1124E05068
:101C3000FF4F458150E04115510511F041E050E062
:101C40008AE0869DF001879DF00D1124E050FF4F42
:101C500066817781665A7D4FCE0101960E94362CAF
:101C6000F50140815181628173812FB7F894809191
:101C7000C7059091C805A091C905B091CA052FBFAD
:101C8000841B950BA60BB70B84369105A105B105F6
:101C900040F4B701C8010E9415059981891709F41C
:101CA0004FC0082C000C9908C4010E94F92A892B06
:101CB00091F0B12C8B2D0F90DF91CF911F910F914F
:101CC000FF90EF90DF90CF90BF90AF909F908F905C
:101CD0007F906F9008958AE0889DF001899DF00DB6
:101CE0001124E050FF4F458150E0E416F50608F45A
:101CF000A7018AE0889DF001899DF00D1124E05034
:101D0000FF4F66817781665A7D4FC6010E94362C4F
:101D1000B701C8010E94150599818913CACF0E9495
:101D2000C304F5016083718382839383BB24B394DE
:101D3000C1CFB12CA701B801C6010E94362CBACF81
:101D4000BB24B394F7CFEF92FF920F931F93CF93DF
:101D5000DF930F92CDB7DEB7EE24E394F12C01E6CA
:101D600012E09E012F5F3F4F42E552E063E082E0C8
:101D70000E94F40D182F8823D9F0E0918202F0E040
:101D8000E057FD4F89819081891B282F90E005C085
:101D9000215090819F5F9083912F1216CCF3282FB2
:101DA00087FD20E0821B81110CC091110E94E40884
:101DB000812F0F90DF91CF911F910F91FF90EF90A6
:101DC00008958F5F908191509083912FECCFCF92A7
:101DD000DF92EF92FF920F931F93CF93DF9300D088
:101DE00000D00F92CDB7DEB76B0185E0E82EF12C65
:101DF0000BE512E09E012F5F3F4F4EE452E061E0A1
:101E000080E00E94F40D882349F095E0FE013196B0
:101E1000A9E4B2E001900D929A95E1F795E0E9E42A
:101E2000F2E0D60101900D929A95E1F70F900F9094
:101E30000F900F900F90DF91CF911F910F91FF9016
:101E4000EF90DF90CF90089569EE7EEF90E080E014
:101E50000E94712C60E082E090E00E94532C60E0D0
:101E600083E090E00E94532C1092380210923902C5
:101E700010923A0210923B0260E084E090E00E94EF
:101E8000532C60E082E290E00E94532C60E085E0F9
:101E900090E00E94532C60E086E090E00E94532C7A
:101EA0006FEF87E090E00E94532C40E050E0BA01D1
:101EB00088E090E00E94652C60E08DE090E00E9458
:101EC000532C40E050E0BA0188E190E00E94652C7C
:101ED00060E087E190E00E94532C40E050E0BA01BE
:101EE0008CE190E00E94652C70E060E080E290E080
:101EF0000E94712C40E050E0BA0188E190E00E941D
:101F0000652C40E050E0BA018FE090E00E94652C23
:101F100040E050E0BA0183E190E00C94652CCF934F
:101F2000C0917402C2FB992790F9981781F080FB49
:101F3000C2F9C09374026091730284E090E00E9441
:101F4000532C6C2F82E290E0CF910C94532CCF91C4
:101F500008951F920F920FB60F9211242F933F9363
:101F60004F935F936F937F938F939F93AF93BF93A1
:101F7000EF93FF938091E10082FF09C08091E2001E
:101F800082FF05C08091E1008B7F8093E10080910A
:101F9000DA0080FF24C08091D80080FF20C08091AB
:101FA000DA008E7F8093DA008091D90080FF9BC099
:101FB00080E189BD82E189BD09B400FEFDCF81E0E9
:101FC0008093DB058091CE05811109C00E94360304
:101FD0000E9401048091E20084608093E20080917D
:101FE000E10080FF17C08091E20080FF13C0809164
:101FF000E2008E7F8093E2008091E2008061809316
:10200000E2008091D80080628093D80019BC85E0FE
:102010008093DB058091E10084FF29C08091E2007C
:1020200084FF25C080E189BD82E189BD89B5982FF3
:10203000917080FFFBCF8091D8008F7D8093D80076
:102040008091E1008F7E8093E1008091E2008F7E9D
:102050008093E2008091E20081608093E2008091B1
:10206000DC05882309F445C084E08093DB0580917A
:10207000E10083FF27C08091E20083FF23C08091AD
:10208000E100877F8093E10082E08093DB0510927E
:10209000DC058091E1008E7F8093E1008091E20079
:1020A0008E7F8093E2008091E20080618093E20065
:1020B00042E060E080E00E94CF038091F000886001
:1020C0008093F000FF91EF91BF91AF919F918F911D
:1020D0007F916F915F914F913F912F910F900FBE24
:1020E0000F901F90189519BC1092DB051092CE0529
:1020F00076CF8091E30087FD93E09093DB05B7CF27
:1021000078941F921FB61F9211248F939F93AF93C1
:10211000BF938091C7059091C805A091C905B09162
:10212000CA050196A11DB11D8093C7059093C805EE
:10213000A093C905B093CA05BF91AF919F918F91AC
:102140001F901FBE1F9018959C014FB7F894809167
:10215000C7059091C805A091C905B091CA054FBFA8
:10216000821B930B08952FB7F8948091C705909127
:10217000C805A091C905B091CA052FBF08950E9456
:10218000780B81110C94B3100E949B0BCB01089526
:102190006091E805669570E041E050E080E591E0EF
:1021A0000E941C2C892B19F481E08093DC040E948E
:1021B000BF109093D6048093D5048091DD04846091
:1021C0008093DD0408959091E80590FF3BC09170E5
:1021D00081112EC092609093E8058091DD048160AA
:1021E0008093DD04662351F06091E8057091E90564
:1021F0008091EA059091EB050E941E0C6091E80524
:10220000669570E041E050E080E591E00E941C2C72
:10221000892BA9F00E94310581E08093D80420E049
:102220004091EB056091EA058091E9050C94300C32
:10223000883010F09E60CFCF880F982BCCCF0E94B3
:10224000C810EACF08958091E8058695815009F479
:1022500087E061E00C94E3108091E80586958F5F3C
:10226000883008F081E061E00C94E3108091E8058B
:1022700080FF07C0869582588F77853010F40C94C4
:102280002C1161E082E00C94E3100E94B3109C01D9
:102290009091D1048091D204982B21F03093CE04F8
:1022A0002093CD049091D3048091D404982B21F0F5
:1022B0003093CC042093CB04E091BE05F091BF0590
:1022C000309749F082E08093CF040480F581E02DBF
:1022D0008FEC94E00994089590E080E00E94FF0460
:1022E00090E080E00E94E9041092350210923402DE
:1022F0000E94EC0886E0EFECF4E0DF011D928A9585
:10230000E9F71092C9041092C8041092CA040C9400
:1023100045116093ED057093EE058093EF05909362
:10232000F0050C946C110F931F936091ED05709163
:10233000EE058091EF059091F0058B019C010670F0
:10234000112722273327063011052105310529F4ED
:1023500068601F910F910C948911677FFACF0F93DA
:102360001F9341E050E060E070E004C0440F551F4F
:10237000661F771F8A95D2F7CB01BA0160957095D9
:10238000809590950091ED051091EE052091EF0557
:102390003091F00560237123822393231F910F91C5
:1023A0000C94891190913302809589238093330294
:1023B000282F277039F4282F082E000C330B921782
:1023C000130621F49091740292FF07C085958595BC
:1023D00085950E94AF111092330208950F931F93B9
:1023E00041E050E060E070E004C0440F551F661FFC
:1023F000771F8A95D2F78091ED059091EE05A09117
:10240000EF05B091F0058A019B01082B192B2A2BAF
:102410003B2BC901B8011F910F910C948911609356
:1024200038027093390280933A0290933B020C94E5
:102430006C1110923602EEEBF1E086E0DF011D92A6
:102440008A95E9F70C946C111F93CF93DF93CDB766
:10245000DEB7AA970FB6F894DEBF0FBECDBF8DEDE5
:1024600095E02091F100FC012193CF01F5E0853E3C
:102470009F07B9F78091DE05833009F46FC0B8F487
:10248000813009F446C0823009F4B0C08091E80080
:1024900083FF7BC28091DD059091DE059A3008F0C4
:1024A00074C2E92FF0E0EA57F14D0C94F42B8A3016
:1024B00009F48BC08B3009F46EC0893039F78091F4
:1024C000DD05813219F78091E1059091E2050297CF
:1024D000E8F68091E800877F8093E8008091E8002B
:1024E00082FF37C09091F3008091F200029729F4A7
:1024F0008091F1008B7F813021F48091F1008093F5
:10250000D0058091E8008B778093E8000E94B003AB
:10251000BDCF8091DD05813A09F0B8CF8091E80008
:10252000877F8093E8008091E1059091E205892BF7
:1025300061F468E081ED95E070E00E9462048091B2
:10254000E8008B778093E800A1CF60E090E080E026
:10255000F3CF8091DB058111C1CF98CF8091DD054C
:10256000813A09F093CF8091E1059091E205892BA2
:1025700009F08CCF8091E800877F8093E8008091FC
:10258000E80080FFFCCF809156018093F10080919C
:10259000E8008E77B9CF8091DD05813209F076CFE2
:1025A0008091E1059091E205892B09F06FCF809130
:1025B000E800877F8093E8000E94B0038091DF05E8
:1025C000809356010E94191261CF8091DD058132FE
:1025D00009F05CCF8091E800877F8093E8000E943B
:1025E000B0038091E0058093CF0550CF8091DD0549
:1025F000813A09F04BCF8091E800877F8093E80013
:102600008091E80080FFFCCF8091CF05BECF80385D
:1026100099F0823809F0B9C18091E1058F70873057
:1026200008F0B3C18093E9008091EB0085FB882717
:1026300080F91092E90006C08091D9059091DA05E1
:10264000911182609091E800977F9093E8008093C9
:10265000F1001092F1008091E8008E7792C18823FA
:1026600009F480C1823009F090C18091DF058111A9
:1026700083C18091E1058F702FEF280F263008F07D
:1026800084C18093E9002091EB0020FF75C1933055
:1026900031F48091EB0080628093EB006DC19091EA
:1026A000EB0090619093EB0021E030E001C0220F3D
:1026B0008A95EAF72093EA001092EA008091EB00F5
:1026C0008860EACF811161C11091DF051F77809189
:1026D000E3008078812B8093E3008091E800877F7E
:1026E0008093E8000E94B0038091E80080FFFCCF57
:1026F0008091E30080688093E30082E0111183E021
:102700008093DB0542C18058823008F03EC1809141
:10271000DF059091E0058C3D23E09207A1F583E071
:102720008A838AE289834FB7F894DE01139620E00A
:102730003EE051E2E32FF0E050935700E49120FF98
:1027400003C0E295EF703F5FEF708E2F90E0EA30AC
:10275000C0F0C7968D939D932F5F243159F74FBFDB
:102760008091E800877F8093E8006AE270E0CE0104
:1027700001960E9462048091E8008B778093E800C4
:1027800004C1C096E7CF4091E1055091E205292FA1
:1027900033272330310509F444C078F52130310561
:1027A00009F46FC08BE390E0EEE5F5E022303105EF
:1027B00009F0EBC02091E800277F2093E8002091EA
:1027C000E3053091E4058217930708F49C0140E08B
:1027D0002115310509F064C0411162C08091E80003
:1027E00082FDC9CF8091DB05882329F2853019F25B
:1027F0008091E80083FFF2CFBECF21323105A9F1ED
:102800002232310509F0C1C04115510509F443C018
:102810004130510509F0B9C08BE790E0E3EAF4E0FC
:10282000C9CF992781309105C1F0009759F00297DF
:1028300009F0ABC0EBEAF5E0E4918E2F90E0EBEA13
:10284000F5E007C0E5EDF5E0E4918E2F90E0E5EDD1
:10285000F5E0009709F499C0ADCFE9EBF5E0E4911C
:102860008E2F90E0E9EBF5E0F4CF4115510571F0C2
:102870004130510509F089C089E090E0E9E8F5E0D0
:1028800099CF82E190E0E9E9F5E094CF89E090E02A
:10289000E0E7F5E08FCF80E490E0EEE1F5E08ACF6D
:1028A0008091DB05882309F466CF853009F463CF76
:1028B0008091E80083FD5FCF8091E80082FD8ECF9C
:1028C0008091E80080FF84CF9091F3008091F20026
:1028D0002115310519F08830910550F041E0089735
:1028E00009F040E08091E8008E778093E80070CF97
:1028F00044914093F1003196215031090196E8CF7F
:10290000803809F042C08091E800877F8093E8001A
:102910008091DC058093F1009ECE811136C010912C
:10292000DF05123090F58091E800877F8093E80002
:102930001093DC050E94B003112311F084E005C060
:102940008091E30087FDFACF81E08093DB0542E0D0
:1029500061EC81E00E94CF0342E261EC82E00E94E0
:10296000CF0313C08091DF05813079F481E093308B
:1029700009F080E08093DA051092E9008091E80088
:10298000877F8093E8000E94B0038091E80083FF76
:102990000AC08091E800877F8093E8008091EB0077
:1029A00080628093EB00AA960FB6F894DEBF0FBE4C
:1029B000CDBFDF91CF911F9108951F920F920FB657
:1029C0000F9211242F933F934F935F936F937F93B5
:1029D0008F939F93AF93BF93CF93DF93EF93FF9327
:1029E000D091E900DF708091EC00C82FC17080FDAC
:1029F000C0E81092E9008091F000877F8093F0009A
:102A000078940E9424121092E9008091F00088606E
:102A10008093F000CD2BCF70C093E900FF91EF9130
:102A2000DF91CF91BF91AF919F918F917F916F91E6
:102A30005F914F913F912F910F900FBE0F901F907C
:102A400018958823F1F19CEF980F913A78F4EEEB0A
:102A5000F1E024EC31E09191891303C0DF0111977B
:102A60001C922E173F07B9F70C94EC0890E2980FD0
:102A7000983088F4877021E030E0A90102C0440F4B
:102A8000551F8A95E2F7CA018095909136028923F5
:102A900080933602E9CF9BE5980F933020F490E0C5
:102AA00080E00C94FF0498E5980F973120F490E0B3
:102AB00080E00C94E9048D3E20F00E94E4050C9423
:102AC00045110895CF93C82F882309F456C08CEF81
:102AD0008C0F813AF8F4EEEBF1E084EC91E0DF0149
:102AE0002D91C21759F08A179B07D1F76C2F8CEBE9
:102AF00091E00E94CF04CF910C94EC082191C21375
:102B000003C0DF0111971C928E179F07B9F70E942F
:102B1000EC08ECCF80E28C0F883068F4C77021E0BD
:102B200030E001C0220FCA95EAF780913602822B6D
:102B300080933602E0CFEBE5EC0FE33040F4F0E0B9
:102B4000E95AFE4F808190E0CF910C94FF04E8E5B4
:102B5000EC0FE73150F4F0E0EE0FFF1FE65AFE4FA6
:102B600080819181CF910C94E904CD3E30F08C2F7F
:102B70000E949F06CF910C944511CF9108951F9309
:102B8000CF93DF93C62FD42F122FFC01828188238D
:102B900099F06093E7050E94B3109093E605809347
:102BA000E505C77081E001C0880FCA95EAF7DF919B
:102BB000CF911F910C941E0A8091E705681343C0C2
:102BC0008091E5059091E6050E94A410883C91054E
:102BD000D0F5CD17C9F080E28C0F883040F4C77073
:102BE00081E001C0880FCA95EAF70E94130A80E2CB
:102BF0008D0F883048F481E09D2F977001C0880FB9
:102C00009A95EAF70E941E0A812F0E9462158AE0B7
:102C100090E0EFE9FFE03197F1F700C00000019785
:102C2000C1F7812F0E94211580E28D0F883090F42A
:102C3000D77081E001C0880FDA95EAF7DF91CF9174
:102C40001F910C94130AC77081E001C0880FCA95C8
:102C5000EAF7F4CFDF91CF911F9108958F929F9261
:102C6000AF92BF92CF92DF92EF92FF920F931F939A
:102C7000CF93DF93CDB7DEB72F970FB6F894DEBFB3
:102C80000FBECDBF8E010F5F1F4F8AE0D8011D928E
:102C90008A95E9F78AE8C82E81E0D82EF12CE12C3C
:102CA000AA24A394B12CF60181916F018F3F09F4FE
:102CB0004AC0F894E82FE295EF70F0E021A18F7000
:102CC000A50102C0440F551F8A95E2F7CA01922F51
:102CD000982B91A392A18095892382A30E94FB0641
:102CE00000C0E4E9F1E030E020E0912C41914F3F59
:102CF00009F47EC0A42FA295AF70B0E090968C919D
:102D000090E04F7002C0959587954A95E2F780FD57
:102D10006FC08A2D022E01C0880F0A94EAF7982A04
:102D20002F5F3F4F2630310509F7F601319780813B
:102D30008F3F11F00E94FD0650EA5A95F1F7F80115
:102D4000EE0DFF1D90828FEFE81AF80A95E0E91664
:102D5000F10409F0A8CF4AE050E0B80185E792E01D
:102D60000E94292C7C01892B41F08AE0F801A5E71B
:102D7000B2E001900D928A95E1F710918002E11482
:102D8000F104C1F181E080933E020E94B310909360
:102D90003D0280933C0280913C0290913D020E9452
:102DA000A410059770F0A5E7B2E0E12FF0E0ED5731
:102DB000FD4F8D91819322E0AA37B207D1F710928F
:102DC0003E0281E090E0EF28C9F02F960FB6F8940C
:102DD000DEBF0FBECDBFDF91CF911F910F91FF904E
:102DE000EF90DF90CF90BF90AF909F908F9008951D
:102DF00080E095CF80913E028111CDCF0E94780B6B
:102E0000B82EE09180028E01055F1F4F882309F4E0
:102E1000AFC085E0D8011D928A95E9F7F0E09F01E7
:102E20002D573D4F790180917202AE01405F5F4F97
:102E30006A018A3008F074C047EE5EE0B801C7014D
:102E40000E94340B882309F482C043EA5EE0B80193
:102E5000C7010E94340B882309F479C04BE95DE077
:102E6000B801C7010E94340B882309F470C04FE2F7
:102E70005DE0B801C7010E94340B882309F467C0E4
:102E800010927202E0917F02F0E0AF014D575D4F6A
:102E9000D80110E0FA019191AF018D91981731F0AE
:102EA0009F0121503109F90180831B2DAC15BD050F
:102EB00089F780914202909143020E94A410893EBA
:102EC000934060F160914102E62EF12C662777274E
:102ED0006E197F09072E000C880B990B0E943C2D60
:102EE00027EA39E747E45DE30E94092E4B015C01C4
:102EF000B701FF0C880B990B0E943C2D9B01AC0184
:102F0000C501B4010E94882C0E940B2D60934102E0
:102F10000E94B3109093430280934202812F55CFB9
:102F200080913F02909140020E94A410843F914002
:102F300008F082CFE0917F02F0E0ED57FD4FD8011D
:102F400011921D92CA16DB06D9F71B2DB2CF8091C4
:102F500072028F3F31F08F5F809372028A3008F4E3
:102F600091CF0E94B3109093400280933F02E2CF32
:102F7000F0E0ED57FD4FF89485E0ABE5B2E001904D
:102F80000D928A95E1F765E070E08BE592E00E9492
:102F9000150580935A020E94FB06F894E091930273
:102FA000F0E0E057FD4F80818B878093610261E004
:102FB00070E0C8010E941505809360020E94FB0624
:102FC000F894C0906202D0906302E0906402F090A6
:102FD00065028091440290914502A0914602B09111
:102FE0004702C816D906EA06FB06D1F0C092440291
:102FF000D0924502E0924602F09247020E94780B7E
:1030000081110EC00E94C304C61AD70AE80AF90A41
:10301000C092C205D092C305E092C405F092C505E6
:103020000E94FB06F89480916D02882379F180FF5D
:103030000DC0809166029091E80580FF2BC09160E1
:103040009093E80560E086950E94E31080916D0200
:1030500081FF09C020E0409169026091680280917F
:1030600067020E94300C80916D0282FF06C0809141
:103070006C02882329F10E94C81080916D0283FFA1
:1030800003C081E08093D80410926D020E94FB0679
:1030900080E09BCE9E7F9093E8050E943105809151
:1030A000DD0481608093DD042FEF30E742E02150A2
:1030B00030404040E1F700C000000E94A90AC6CF9E
:1030C0000E943105DACF4F925F926F927F928F927A
:1030D0009F92AF92BF92CF92DF92EF92FF920F93A7
:1030E0001F93CF93DF9300D000D00F92CDB7DEB700
:1030F0007C01FC0183819481892B39F01081D1807E
:10310000812F8D218F3F09F067C70F900F900F908F
:103110000F900F90DF91CF911F910F91FF90EF9043
:10312000DF90CF90BF90AF909F908F907F906F90E7
:103130005F904F9008950E942309082F682F89817E
:103140009A810E94BE09E12FF0E026E0D29EE00DB8
:10315000F11D11243CE3039FE00DF11D1124EE0F3E
:10316000FF1FEC5DFE4F05911491F70182818823CA
:1031700009F463C0C80190568115F0E29F0750F032
:10318000905E811520E1920728F0915C81159F41A6
:1031900008F086C0C80199279C01245031092432C7
:1031A000310520F08B970E9708F047C080914202BE
:1031B000909143020097D9F10E94A4109C0150E025
:1031C00040E060E67AEE80E090E00E94D52BCA01F4
:1031D000B90125E030E040E050E00E94D52BC090DE
:1031E00041022F3F310519F010F02FEF30E0D12CC4
:1031F0002C193D09B90190E080E00E943A2D27EAA0
:1032000039E747E45DE30E94092E0E94F42C4B014C
:103210005C01B601DD0C880B990B0E943C2DA501C9
:1032200094010E94882C0E940B2D609341020E9401
:10323000B310909343028093420206368DE518073F
:1032400009F406C108F071C00D37110509F475C104
:1032500080F50B37110509F47FC108F05BC10A370F
:10326000110509F488C1043FFCE51F0709F4B7C143
:1032700008F0A3C1093D3CE5130709F4ACC10A3DC0
:103280008CE5180709F4B7C1083D9CE5190709F05A
:1032900067C026E241EE61EEC7010E94BF1523C060
:1032A00090E080E00F3F110511F008F075CFC801E4
:1032B00073CF0436EDE51E0709F4B4C008F0C0C0B2
:1032C00003362DE5120779F6F7018281882359F03C
:1032D00061E083E090E00E94532C61E070E080E0C8
:1032E00090E00E940F1280913302877009F40DCF95
:1032F000F7018281882309F408CF82E00F900F90B4
:103300000F900F900F90DF91CF911F910F91FF9031
:10331000EF90DF90CF90BF90AF909F908F907F9075
:103320006F905F904F900C94D2110A363DE51307D1
:1033300009F4D2C008F05EC0F70192818091740256
:103340000836FDE51F0709F4A8C008F48DC0817098
:10335000992309F4BBC0811193C08AE40E946215CD
:10336000F7018281882309F448C61092E7050230EC
:10337000FCE51F0708F420C206312CE5120730F0E7
:10338000C8018B5F9C45099708F016C20E94210D69
:10339000909374028093730200313CE5130709F4A3
:1033A000DAC108F068C108309CE5190709F4C9C101
:1033B00008F037C10430FCE51F0709F4BAC108F072
:1033C0001DC102303CE5130709F4A9C103301C45B7
:1033D00009F4ABC1609173021091740284E090E033
:1033E0000E94532C612F82E290E00E94532C0E9495
:1033F000191279CF0C363DE5130709F4CBC008F458
:103400007AC00D369DE5190709F02DCF81E00E94A5
:103410001407F7019281992309F4CBC00E941E0A78
:1034200088E041C0F7018281882331F081E00E9469
:10343000EE110E94931157CF81E00E94AF11F9CF96
:10344000F7018281882311F082E0F1CF82E0F5CF8D
:10345000F7018281882321F083E00E94EE1143CF9F
:1034600083E00E94AF113FCF8170992359F08823E8
:1034700039F084E00E9414070E941E0A80E56ECF96
:1034800081E0F8CF882339F084E00E9414070E947D
:10349000130A80E51EC081E0F8CF8170992359F0AE
:1034A000882339F084E00E9414070E941E0A8FE4EA
:1034B00055CF81E0F8CF882339F084E00E941407CB
:1034C0000E94130A8FE405C081E0F8CF8111E3CF99
:1034D0008AE40E94211544CF809174028170F70123
:1034E0009281992321F08111E4CF8DE437CF8111AE
:1034F000EBCF8DE4EECF81E00E941407F7019281BB
:10350000992321F00E941E0A8AE228CF0E94130A02
:103510008AE2DFCF81E00E941407F70192819923AC
:1035200031F00E941E0A86E00E946215DCCE0E94E5
:10353000130A86E00E942115D6CE81E00E9414076E
:10354000F7019281992321F00E941E0A89E1ECCFB4
:103550000E94130A89E1EECF81E00E941407F7016F
:103560009281992321F00E941E0A8BE1DDCF0E94F7
:10357000130A8BE1DFCF81E00E941407F7019281EB
:10358000992321F00E941E0A8DE1CECF0E94130ADA
:103590008DE1D0CF81E00E941407F7019281992339
:1035A00021F00E941E0A88E065CF0E94130A88E07D
:1035B0006CCF0E94130A88E081CF063FECE51E071E
:1035C000B1F088F0073F2CE5120709F0C9CE27E2D9
:1035D00045EE66EE61CE27E245EE65EE5DCE26E273
:1035E00041EE60EE59CE27E245EE64EE55CE26E27E
:1035F00041EE62EE51CE28E241E0EFCF80917302BE
:10360000806106309CE5190709F48CC08091730233
:10361000886007301C4508F485C080917302806281
:1036200081C0809173028D7F0C30FCE51F0709F487
:1036300079C070F4809173028C600A303CE5130706
:1036400009F470C008F481C0809173028E7F6AC053
:1036500080917302877F0E309CE5190709F462C0E0
:10366000809173028B7F0F301C4508F45BC0809102
:1036700073028F7E57C00C3FFCE51F0709F45DC045
:1036800030F503313CE5130709F46DC078F40131DE
:103690009CE5190709F463C002311C4509F09ACE74
:1036A0000E941912809173028F773CC00531FCE5AE
:1036B0001F0709F460C008F474C08091740281602F
:1036C0000B3F1C4509F086CE8093740283CE011512
:1036D0008DE5180709F44BC088F4809174028D7F42
:1036E0000E3FECE51E0781F3809174028E7F0F3F41
:1036F0001C4550F3809174028360E6CF02302DE5C3
:10370000120709F457C008F442C060E003301D45B9
:1037100009F060CE8EE090E00E94532C5BCE809149
:10372000730281608093730255CE80917302826030
:10373000F9CF809173028460F5CF8091740282602A
:10374000C3CF809173028064EDCF0E9419128091E3
:1037500073028068E7CF809173028F7DE3CF809101
:1037600073028F7BDFCF80917302837FDBCF8091E9
:1037700074028C7FA9CF8091730282FB992790F904
:1037800021E0922790FB82F990FB83F9CBCF8091C7
:103790007402982F909591708E7F892B90FB81F900
:1037A00093CF0E94191290917302892F97FB87F98A
:1037B0008058B8CF61E0AECF06319CE5190709F01B
:1037C000B4C0809136028A7A91E009F490E0909337
:1037D000CF0169E2811165E38CEB91E00E94CF0497
:1037E0000E94EC0880CD85E3EEEBF1E024EC31E0C3
:1037F0009191891303C0DF0111971C922E173F0787
:10380000B9F7EECF083C2CE5120709F47AC008F4AA
:1038100073C0093C9CE5190709F478C045EA5CE0EF
:1038200061EB7CE00A3C1C4509F008C40E942B05B2
:103830005ACD013DFCE51F07A0F40F3C2CE5120713
:1038400008F051CD0D3C3CE5130709F469C047EE83
:103850005CE068EF7CE00E3C1C4540F361E081E0F9
:1038600039C0073DECE51E0738F4023D1C4508F061
:103870003ACD0E94361137CD0E351D4509F433CDB2
:10388000DDC38091E80580FF20C08E7F8093E8052E
:103890006091E8057091E9058091EA059091EB054A
:1038A0000E941E0C0E9431058091DD04816080938E
:1038B000DD043FEF80E792E0315080409040E1F737
:1038C00000C000000E94A90A0ECD81608093E80527
:1038D00061E086950E94E31006CD43E251E16CE27F
:1038E00071E1A4CF4CE251E163E271E19FCF45ED7C
:1038F0005CE06EED7CE09ACF4EED5CE065ED7CE047
:1039000095CF4DEB5CE069EC7CE090CF49EC5CE05E
:103910006DEB7CE08BCF41EB5CE065EA7CE086CF31
:1039200048EF5CE067EE7CE081CF0B35EDE51E07EC
:1039300009F43AC058F401152CE51207C9F00F3DFF
:103940001C4509F07BC30E94240FCDCC0C358DE5BE
:10395000180761F10D351D4509F070C3809174029F
:1039600082FB882780F991E089270E948F0F66C328
:103970000E941912EFEFF4E32CE0E150F0402040F8
:10398000E1F700C0000087E797E790930108809374
:10399000000888E19AE00FB6F894A895809360003B
:1039A0000FBE90936000FFCF81E0DFCF80E0DDCFDE
:1039B000812F902F0E949509D82E51C32D2D2F7045
:1039C000C22E8D2D807F19F0C29470EFC722112373
:1039D000C9F0CC2069F080E2800F883010F0B1107F
:1039E0000BC080913602C82AC09236020E94EC08B1
:1039F000802F0E94621518C080913502C82AC0929B
:103A00003502F4CF802F0E942115CC2069F0C0949C
:103A1000005E083010F0B11057C080913602C82205
:103A2000C09236020E94EC08292D2850330B243016
:103A3000310510F40E94B60B112379F08D2D807F93
:103A4000803619F436EFB31641F08091D001823000
:103A500009F0BAC283E08093D001AA20A9F0809136
:103A6000330280FD11C0F7011282859585958595F9
:103A70000E94EE11C7010E94631880913302859560
:103A8000859585950E94AF1185E0F701DE011196BD
:103A900001900D928A95E1F789819A810E9495099A
:103AA0009A81E981F0E026E0929FE00DF11D11245A
:103AB0003CE3839FE00DF11D1124EE0FFF1FEC5D31
:103AC000FE4F8591949121CB80913502C822C092FE
:103AD0003502A8CF3D2D3F70832E8D2D807F803203
:103AE00019F0829460EF8622BB2071F081E0B81655
:103AF00081F11123E9F1CC2099F1F701858180FF53
:103B000077CF8F7085832CC01123B1F0909137024D
:103B1000882D892BC11003C00E941E0A85CFE1E0C9
:103B2000CE12FACF2091740222FD7ECF981709F4AD
:103B30007BCF8093370278CFC11006C00E94E60881
:103B4000882D0E94130A70CFF1E0CF1609F46CCFD4
:103B5000F5CF112339F055E0452E4C1408F464CF0D
:103B6000882DDACF44E0542E5C1408F45DCFE8CF02
:103B7000CC2031F3F9E3BF120DC02FEF37EE83E015
:103B8000215030408040E1F700C00000802F0E94AB
:103B900021154ACFEFE3FCE93197F1F7F5CF8D2DF1
:103BA00086958695837069F0813009F03DCF802F2E
:103BB0009D2D9370111102C090E080E00E94E904F5
:103BC00033CF802F9D2D9370111102C090E080E0C3
:103BD0000E94FF0429CF802F112329F00E949F0605
:103BE0000E94451121CF0E94E405FACF8D2D8370EC
:103BF00009F067C0111118CF202F22952695277044
:103C0000220F220F402F4F7050E070E060E0022E34
:103C100004C0440F551F661F771F0A94D2F780E037
:103C200090E0DC0104FF0FC08FE090E0A0E0B0E086
:103C300004C0880F991FAA1FBB1F2A95D2F7809531
:103C40009095A095B0952D2D269526952370223020
:103C500029F1D8F4409038025090390260903A022D
:103C600070903B02213069F0842B952BA62BB72B4B
:103C7000BC01CD0164217521862197210E940F127C
:103C8000D3CE44295529662977292A013B01482AA0
:103C9000592A6A2A7B2AC301B201F0CF842B952BC3
:103CA000A62BB72B409038025090390260903A0210
:103CB00070903B02BC01CD016425752586259725B2
:103CC000DDCF8695112311F08D2D8170882309F4A5
:103CD000ABCE202F229526952770220F220F402F42
:103CE0004F7050E070E060E0022E04C0440F551F9A
:103CF000661F771F0A94D2F780E090E0DC0104FF92
:103D00000FC08FE090E0A0E0B0E004C0880F991FE2
:103D1000AA1FBB1F2A95D2F780959095A095B095C4
:103D20002D2D269526952370223029F1D8F4409028
:103D3000ED055090EE056090EF057090F005213094
:103D400069F0842B952BA62BB72BBC01CD016421E8
:103D50007521862197210E94891166CE4429552913
:103D6000662977292A013B01482A592A6A2A7B2A8F
:103D7000C301B201F0CF842B952BA62BB72B40901B
:103D8000ED055090EE056090EF057090F005BC01D8
:103D9000CD016425752586259725DDCF2D2D2F7026
:103DA000C22E112329F0822F0E94EE11802FB4CE53
:103DB000802F0E94130A8C2D0E94AF1135CE802FC8
:103DC00032EFB31609F459C03B1578F090EFB916ED
:103DD00049F1E1EFBE1609F448C0112309F471C09E
:103DE000C11006CE8D2D8F7145C0F3EFBF1609F4BB
:103DF00049C034EF432EB410F0CF112309F456C05C
:103E00000D2D0F71802F0E94EE118091740282FDA2
:103E100007C028E0029FC001112483608093330211
:103E2000802F28C01123D9F024E0522E5C1408F40E
:103E3000FBCD2D2D2F7161E070E080E090E004C09B
:103E4000660F771F881F991F2A95D2F74090ED05BE
:103E50005090EE056090EF057090F0059ACF95E0D8
:103E6000692E6C1408F4E0CDE4CF8D2D8F711123F1
:103E700009F4A2CF0E94EE11D7CD8D2D8F711123A1
:103E8000C9F39ACF60E070E0CB01112309F463CF4E
:103E90002D2D2F7161E070E080E090E004C0660F8E
:103EA000771F881F991F2A95D2F755CF81E00E946E
:103EB000D21131E03C1508F0B7CD82E00E94D2115A
:103EC000B3CDCC2079F0893341F48FEF97EEE3E066
:103ED00081509040E040E1F757CE8FE39CE9019795
:103EE000F1F752CE8D2D8F7167CFE0E1E00FE73013
:103EF00008F03FC0F0E0E057F14D0C94F42B112393
:103F000009F492CD8091FA0191E089278093FA011A
:103F10008BCD1093FA0188CD81E08127F7CF111165
:103F200083CD81E0F3CF11117FCD1092FA017CCDCA
:103F3000112321F082E08093D001F3CF8091D00152
:103F4000823021F481E08093D0016ECD833009F07E
:103F50006BCD1092D001E9CF112339F08091F90196
:103F6000882381F21092F9015FCD94E09C1550F600
:103F70005BCD8091F901CC20D9F0882341F080916C
:103F8000FA0191E089278093FA011092F901111149
:103F90002FCDEFE3FCE93197F1F700C00000802F4F
:103FA0000E94211586E0F70111928A95E9F73CCD30
:103FB000882309F439CD111137CD8091FA0191E0B0
:103FC00089278093FA01CECF813009F046CD109237
:103FD000D0011092FA0141CD85E0DE0111960190E9
:103FE0000D928A95E1F7F701228189819A81211149
:103FF000A2C80E949509082FA6C80631FCE51F0734
:1040000009F477C08091360282720B3CECE51E0702
:1040100009F481CC08F00DCC063C2CE5120709F41C
:1040200066CC08F0EFCB043C9CE5190709F455CCAD
:1040300008F058CC033C1C4509F423CCF7018281DD
:1040400010810181882309F4B3CC812F902F0E9425
:104050002309D82E682F812F902F0E94BE09E12FAF
:10406000F0E026E0029FE00DF11D11243CE3D39E19
:10407000E00DF11D1124EE0FFF1FEC5DFE4F859149
:1040800094910E945707082FD92EB82EF70112815C
:10409000C580C294BFE0CB22809133028770C9F003
:1040A000A12E1123B9F0892F807F803449F090E24E
:1040B000900F983070F0803619F4F6EF0F1749F032
:1040C00082E00E94D211809133028770AA24A394C7
:1040D0008111A12C9D2C9294EFE09E22FBE04F2EAB
:1040E000491408F4A1CCE92DF0E0E956F14D0C9407
:1040F000F42B8091CF01811176CB89E275CB1F9390
:10410000CF93DF9380910002807FA9F48091FD011D
:10411000882389F080913202D09101026091FB01E5
:104120007091FC01A091FE01B091FF01C62FC72341
:1041300016E0D81304C0DF91CF911F91089590E04D
:10414000109711F0CF3F19F401968770F2CF189FA6
:104150009001199F300D1124F901EE5FFD4F41814F
:104160004713F2CF40814613EFCF42814111ECCF8C
:10417000438154814A1B5B0B483C510528F78091D1
:1041800000028F70806180930002F901E95FFD4FAA
:1041900080818F70806180838BEF91E00E94631833
:1041A000DF91CF911F910C941909AF92BF92CF92DA
:1041B000DF92EF92FF920F931F93CF93DF93CDB7D0
:1041C000DEB761970FB6F894DEBF0FBECDBF8C018E
:1041D00085E0F801DE011D9601900D928A95E1F7C8
:1041E000F801E2808BEFA82E81E0B82E6091FE01ED
:1041F0007091FF016115710509F422C19091FB01D5
:104200004091FC01892F84238F3F09F419C120813B
:104210003181C380D480F090FD01F601E61BF70BDD
:10422000FF2009F4F4C080910002582F507FE83C31
:10423000F10508F0B7C0511177C0FE2C431321C01F
:1042400092131FC0E1101DC08F7080618093000227
:10425000C5010E94631880910002F80185838F2DAB
:1042600061960FB6F894DEBF0FBECDBFDF91CF9140
:104270001F910F91FF90EF90DF90CF90BF90AF9084
:104280000895CD2829F0822F83238F3F09F001C1A3
:1042900080E0F82FF170DF2E80FF3CC08091320269
:1042A0004091010256E0841315C02D873E878D850D
:1042B0009E850E947A09292F22952F702230F0F0D6
:1042C000243018F59F70F1F0F8019581907FD1F4BA
:1042D000D12C1EC090E0589FF001599FF00D112481
:1042E000EE5FFD4F6181361306C06081261303C067
:1042F0006281E6120FC001968770D5CF9F7011F0D2
:10430000882331F3805E883018F3C8010E94631857
:10431000FD2CA5CFEE2009F4A2CF80910002816090
:1043200080930002F12C9BCF431312C0921310C054
:10433000E1100EC0F8018583C8010E94631886E071
:10434000F801ABEFB1E001900D928A95E1F787CFCC
:10435000C8010E94EC09882309F1EE20F9F0809150
:104360000002803270F02091FB013091FC0138870F
:104370002F831986DB86CA868C87CE0107960E941A
:10438000631886E0F801ABEFB1E001900D928A95D9
:10439000E1F70E947F20FF24F39461CFC8010E94BF
:1043A0006318F9CF51110AC08BEF91E00E94631896
:1043B00086E0F50111928A95E9F7B4CF43130FC057
:1043C00092130DC0E1100BC0F8018583C8010E9453
:1043D000631886E0F50111928A95E9F740CFC8018C
:1043E0000E94EC098823D1F2EE20C1F280910002F4
:1043F000803238F22091FB013091FC013A8329830D
:104400001B82DD82CC828E83CE010196B8CFE83C40
:10441000F105F8F6FE2CEE2009F2431303C09217C3
:1044200009F48DCFC8010E94EC098111AACF8091B7
:104430000002816080930002C8010E9463180FCFC0
:10444000EE2009F4ABCFC8010E94EC09F82E8823B6
:1044500009F4A4CF86E0F801ABEFB1E001900D9232
:104460008A95E1F78091FB019091FC010E947A0905
:1044700092959F70963051F4863F41F08091FA01F9
:1044800091E089278093FA019093F9010E947F209F
:10449000E6CE81E08E25FDCE0F931F93CF93DF9361
:1044A000CDB7DEB767970FB6F894DEBF0FBECDBFAE
:1044B0006D8B7E8B8F8B752F6111109235028E89DB
:1044C0009F89892B09F487C0872F84238F3F09F0A8
:1044D0005BC07FEF4FEF7FC0902F909589237AC00C
:1044E00086E0FE013796DE01119601900D928A95C5
:1044F000E1F78A859B85892B09F48AC08F8198858D
:1045000089238F3F09F484C02091010230E0C90162
:10451000019687709927409132024817190671F465
:104520000E941912109201021092320286E0EBEF03
:10453000F1E0DF011D928A95E9F76AC096E0929F4B
:10454000D001939FB00D1124AE5FBD4FFE01319697
:1045500001900D929A95E1F7809301020E9419094A
:1045600057C0819FC00111248E5F9D4F0E94D520AE
:10457000882309F454C08091320290E0019687703C
:1045800099278093320245C001E010E0042E01C05B
:10459000000F0A94EAF7A72FB0E0AB53BE4F8C91FF
:1045A0009091FA01611102C0982F9023992309F488
:1045B00093CF50E096E0799F400D511D1124440F98
:1045C000551FFA01E355FF4F749144555F4FFA01AF
:1045D0004491802B8C931A8A198A4B8B7C8B85E0B3
:1045E000FE017396DE011D9601900D928A95E1F70A
:1045F00086E0FE013D96DE01179601900D928A95A8
:10460000E1F7CE0107960E94D520882309F468CFF0
:1046100016E080913202909101028913A2CF679631
:104620000FB6F894DEBF0FBECDBFDF91CF911F91C3
:104630000F9108951F921FB61F9211248F939F937D
:10464000AF93BF938091C605811113C08091C705B8
:104650009091C805A091C905B091CA054196A11DC8
:10466000B11D8093C7059093C805A093C905B09369
:10467000CA05BF91AF919F918F911F901FBE1F9050
:104680001895CDB7DEB762970FB6F894DEBF0FBEB0
:10469000CDBF84B7877F84BF0FB6F894A89580916B
:1046A0006000886180936000109260000FBE80E817
:1046B00090E00FB6F89480936100909361000FBE74
:1046C00085B7806885BF85B7806885BF89EF96E02C
:1046D0009093BB018093BA010E9436030E940104AB
:1046E0008091E20084608093E20078948091DB0501
:1046F0008823A1F01091E9001F709091EC00892FA0
:10470000817090FD80E8182B1092E9008091E800FC
:1047100083FD0E9424121F701093E90082E084BD83
:1047200093E095BD9AEF97BD80936E001092C205FD
:104730001092C3051092C4051092C5050E94780B13
:1047400091E0892780933C0180913C01882309F402
:1047500071C31092510184E2809352010E94780B40
:1047600081110E94EC2980913C0180913C0195E0EF
:10477000811190E09093800285E0891B80937F02F5
:104780000AE811E0FFE8EF2EF1E0FF2ED8018D914D
:104790008D018F3F11F00E94FD06E016F106B1F782
:1047A00004E911E0EAE9EE2EE1E0FE2EF801819144
:1047B0008F018F3F11F00E94FD06E016F106B1F760
:1047C000E5E7F2E08FE792E0A3E8B2E011921D92F4
:1047D0008E179F07D9F790E080E00E944D2C893E0C
:1047E0009E4F11F00E94240F82E090E00E943F2C27
:1047F0008093BD040E94210D9093740280937302F4
:1048000083E090E00E943F2C682F70E090E080E011
:104810000E940F120E94780B811102C00E94EF29A2
:104820001092B60480E8809395020E9484286DE07F
:1048300070E08FE893E00E94C60B892BC9F5809148
:10484000B60463E070E081FDF9C28CE893E00E9459
:10485000C60B892B69F56DE070E08CE793E00E9450
:10486000C60B892B29F50E94C304605A75418F4FEE
:104870009F4F6093B6057093B7058093B8059093EA
:10488000B905E6EBF2E080E092E0DF019C011D92C9
:1048900021503040E1F78FEF9FEF9093B904809360
:1048A000B80481E08093BB058093BA051092B704E9
:1048B0008091810281113BC090E080E00E944D2CEC
:1048C000893E9E4F21F00E94240F0E94090D88E02E
:1048D00090E00E94472C6093E8057093E90580936F
:1048E000EA059093EB058091DD0483608093DD04FD
:1048F0006E7F71F40E94090D88E090E00E94472CC1
:104900006093E8057093E9058093EA059093EB05C1
:104910000E9438050E9431058091E80580FF04C09F
:1049200060E086950E94E31081E08093810280918F
:104930003C01811106C084EF8093480185EF80938C
:10494000470120914801A22FA295AF70B0E0919647
:104950003C9191972F7081E090E0BC01022E01C044
:10496000660F0A94EAF7462F4095432391964C939D
:10497000919792963C919297362B92963C93929770
:1049800040914701E42FE295EF70F0E031A14F70C4
:10499000042E01C0880F0A94EAF7982F909593236C
:1049A00091A392A1892B82A390968C9190E002C052
:1049B000959587952A95E2F7817020A130E002C095
:1049C000359527954A95E2F792E020FF90E0892BF4
:1049D0008093940290913C0181E0982790939302F8
:1049E000891B809382028DE391E09093BF058093B1
:1049F000BE0570E4672E8091DB0500E112E1853091
:104A000009F456C20E942E16E82E81110E94C3049A
:104A1000EEEBF4E0A3E8B2E010E000E0B02EDD90B1
:104A200081918D1509F453C28D25C12CFF24F39477
:104A3000982F9F2109F446C20E94780B882399F091
:104A4000CF82B886DF2081E009F480E089870E9468
:104A5000B3108160782F9B878A874F81588569853D
:104A60008B850E944C22F801E254FB4F8081F8268E
:104A7000F0828091DC04882309F46AC08091DB0411
:104A8000E091E805E695E81BE093D70400ED17E018
:104A900050E3C52E55E0D52E823059F4E695F0E06E
:104AA000E456FC4FE4910E2F10E064EFC62E6AE04E
:104AB000D62E8091D804882361F01092D8040E94E9
:104AC000BF109093D6048093D5041092DA0410920C
:104AD000D9040E94BF10E091D504F091D6049C0146
:104AE0002E1B3F0B2F3F3F4798F520918F0222232B
:104AF000B1F010928F0220918D0230918E02821BB4
:104B0000930B8F3F9F4758F4205D3A4830938E02B5
:104B100020938D028091DD0488608093DD04A09055
:104B2000D904B090DA040E0F1F1F1093D60400931F
:104B3000D50485ED94E0F60109958091D904909112
:104B4000DA04892B29F4AB2819F081E080938F02D5
:104B500080919402E82FEE0FEE0F90914801A92F5B
:104B6000A295AF70B0E090962C9130E09F7002C09B
:104B7000359527959A95E2F7217033279091470153
:104B8000A92FA295AF70B0E090964C9150E09F7025
:104B900002C0559547959A95E2F7CA018170992709
:104BA00040FF02C082E090E0822B8E2B8093940223
:104BB000909193028F70E82FF0E0E656FE4F8081CF
:104BC00020919202820F82300CF498C1E92FF0E01C
:104BD000E057FD4F90819F5F9083FF24F394082E50
:104BE000000C990B62E070E00E94C12B809392024E
:104BF000F1100E94E4088091BB05882309F441C0AC
:104C00008091BA049091BB040E94A410C29730F026
:104C10000E94B3109093BB048093BA042091B8040F
:104C20003091B9042115310539F08091B70461E064
:104C300070E0882309F46EC18091BA05882309F1D8
:104C40000E94C3040091B6051091B7052091B805E4
:104C50003091B905601B710B820B930B6F3F7F4F37
:104C60008F4F9F4770F48091BB05882351F062E01D
:104C700070E08FE993E00E94C60B892B11F410922B
:104C8000BA05E11001C0F1100E94F60B86E0EFECCE
:104C9000F4E0DE01119601900D928A95E1F7F09013
:104CA000D104E090D2041091D3040091D404109266
:104CB000D1041092D2041092D3041092D4048F2DF8
:104CC0008E2909F448C08091CD049091CE040E94B1
:104CD000A4109C019091C904992309F410C22333B4
:104CE0003105C8F19F3F19F09F5F9093C904FF20E1
:104CF00059F00E947F069FEF1F140CF491E0899FEA
:104D0000802D11248093D104EE2059F00E947F065B
:104D10009FEF1E140CF491E0899F802D1124809345
:104D2000D2043091D1043323B1F02091D204222354
:104D300091F045EB3403C0011124992309F4B4C167
:104D40009093D10445EB240390011124332309F4FB
:104D5000AFC13093D204812F802B09F448C08091D9
:104D6000CB049091CC040E94A4109C019091C804A3
:104D7000992309F4BFC125363105C8F19F3F19F0C9
:104D80009F5F9093C804112359F00E945D069FEF26
:104D900011160CF491E0899F802D11248093D30487
:104DA000002359F00E945D069FEF10160CF491E06D
:104DB000899F802D11248093D4043091D304332310
:104DC000B1F02091D404222391F045EB3403C001CB
:104DD0001124992309F470C19093D30445EB240363
:104DE00090011124332309F46BC13093D4048091D2
:104DF000D1049091D204892B9091D304892B909166
:104E0000D404892B11F00E94451186E0FE013196F1
:104E1000AFECB4E001900D928A95E1F70E94B60BD9
:104E20009091BC04891709F4E6CD0E94B60B8093DB
:104E3000BC04E1CD84E2809351018ECC89E893E0FB
:104E400006CD8091DB05843019F11092C60588E10A
:104E500090E00FB6F894A895809360000FBE609222
:104E6000600083B7817F846083BF83B7816083BF25
:104E70007894889583B78E7F83BF0FB6F894A895F2
:104E800080916000886180936000109260000FBE86
:104E90008091DA05882361F00E942E16E3E8F2E0A3
:104EA0008191811111C1ADE8B2E0AE17BF07C1F722
:104EB0008091DB05853009F4C4CF0E9419120E944D
:104EC000B60BA0CDC394FF0C26E0C212B1CD0F5F8C
:104ED0001F4F0A30110509F0A1CD8FEF8C878D8708
:104EE0001E860E94B3108160782F988B8F874C8527
:104EF0005D856E8588890E944C22BBCDF12C8F3F49
:104F00000CF06DCEE92FF0E0E057FD4F908191500D
:104F100063CE8F5F082F10E02B01082E02C0440CD7
:104F2000551C0A94E2F7A90144215521452B89F328
:104F30009091B60490FD44C08295880F807680934E
:104F40004B019801369527953695279520934E016C
:104F5000815E80934C0110924F0124E630E047E0DF
:104F600050E069E471E088E70E943329892B09F059
:104F700063CEA80195E0440F551F9A95E1F7809103
:104F8000B60480FD2BC04A545D4F04E610E020E2D9
:104F900030E060E488E70E945A29892B09F04CCE62
:104FA0000E94F60BC201809590954090B8045090F5
:104FB000B904482259225092B9044092B8043CCE18
:104FC000880F880F880F80934B0110924E01895FE4
:104FD00080934C0183E080934F01BFCFE6E9F2E07C
:104FE00080E2DF011D928A95E9F7EEEAF1E0FA8BA3
:104FF000E98B0AEA11E087E0A82E99249394A98905
:10500000BA892D91BA8BA98BF80121908F01240EBA
:10501000352E311CC1018A549D4F1C01E22FF0E056
:10502000EA56FD4F30E020E07A2C721AB92C022E9D
:1050300001C0BB0C0A94EAF7610190E0D6018D91A2
:105040006D018B21672D691B6770862E062E000C63
:10505000770BB82F01C0BB0F8A94EAF78B2E71959E
:10506000619571096770772701C086956A95EAF79F
:10507000882A8081882A80829F5F9830F9F62F5F86
:105080003F4F31962830310579F6E2EBF1E029897E
:105090003A89E217F30709F0B2CF04E610E020E204
:1050A00030E046E952E075CF81E08093D1044ACEEA
:1050B00081E08093D2044FCE81E08093D3048ECEE2
:1050C00081E08093D40493CE09BD19BD09B400FEDC
:1050D000FDCF8091D8008F7D8093D8008091E00033
:1050E00082608093E0008091E00081FDFCCF0E940F
:1050F0001912DECE2D32314008F042CE78CE2D325C
:10510000314008F0F1CD27CE1092B9008CE08093A9
:10511000B80008959F92AF92BF92CF92DF92EF9224
:10512000FF920F931F93CF93DF93B82EEB010E9452
:10513000B3106C01EE24E394F12CC431D10560F07E
:1051400025E0E22EF12CCF3FDC0731F0CE0164E107
:1051500070E00E94AD2B7B0184EAA82E94E8992E82
:105160001092BC00A092BC000E94B3108C018091F0
:10517000BC0087FF0DC08091B900887F883039F16D
:105180008091B900887F803111F10FEF1FEF09C0C6
:105190000E94B310801B910B8E159F0540F30EEFFC
:1051A0001FEFCF3FDC07E1F2C6010E94A4108C176D
:1051B0009D07B0F2C801DF91CF911F910F91FF9031
:1051C000EF90DF90CF90BF90AF909F900895B092F6
:1051D000BB009092BC000E94B3108C018091BC0077
:1051E00087FF0AC08091B900887F883111F0803430
:1051F00061F610E000E0DECF0E94B310801B910B3F
:105200008E159F0558F3CBCF0F931F93CF93DF934A
:10521000EB018093BB0084E88093BC000E94B31034
:105220008C018091BC0087FF11C02091B900287FBC
:1052300081E090E0283211F490E080E09195819532
:105240009109DF91CF911F910F910895CF3FDC0716
:1052500041F30E94B310801B910B8C179D0708F33C
:105260008EEF9FEFEECFCF92DF92EF92FF920F93F0
:105270001F93CF93DF936B018A017901B9010E94DB
:105280008A28E6010C0D1D1DC017D10761F424E921
:105290002093BC00DF91CF911F910F91FF90EF9071
:1052A000DF90CF90089597FDF2CFB70189910E94CA
:1052B0000429EACFCF92DF92EF92FF920F931F93D0
:1052C000CF93DF93C62F6A017901B8010E948A2823
:1052D00097FD0CC0B8018C2F0E940429E601EC0C4C
:1052E000FD1CCE15DF0511F097FF0CC024E92093BB
:1052F000BC00DF91CF911F910F91FF90EF90DF9055
:10530000CF900895B80189910E940429EACF84E9D9
:105310008093BC0008958EE14A9B02C08150E1F762
:105320004A9BFECF08955A9880E28A95F1F75A9ADF
:105330000895FC013BE03A95F1F798E020E080E029
:1053400031E040E14A95F1F7880F4A9B02C0816045
:10535000232742E04A95F1F7000040E14A95F1F732
:10536000915079F790E19A95F1F799B132E03A9539
:10537000F1F7000040E14A95F1F792FB992790F987
:1053800092272081920F90830895EF92FF920F93BE
:105390001F93CF93DF930F92CDB7DEB719828C01A5
:1053A0007C01E60EF11C0E151F0561F481E0998168
:1053B000911180E00F90DF91CF911F910F91FF909D
:1053C000EF9008950E948B29CE0101960E949929A1
:1053D000F80181938F01E7CF529A5A9A0895529813
:1053E0005A9AEA9AE9E6F0E080818F7C80830895FA
:1053F0006150770B91E001C0990F6A95EAF720E0C0
:1054000031E0911108C0222391F05A9A80E28A95E6
:10541000F1F75A980895492F482339F05A9A2327CB
:1054200040E24A95F1F79695ECCF5A98F9CF5A9801
:10543000EDCFFF920F931F93CF93DF93EC018C017D
:10544000060F111DC017D10731F4DF91CF911F91C5
:105450000F91FF900895F9900E94932968E08F2D95
:105460000E94F829EFCF1F920F920FB60F921124CE
:10547000EF92FF920F931F932F933F934F935F935E
:105480006F937F938F939F93AF93BF93EF93FF930C
:10549000CF93DF930F92CDB7DEB719820E948B298D
:1054A000CE0101960E949929A82FA695A695A695AA
:1054B000282F229525709A2F9570290F922F93707F
:1054C00026952695920F982797708981982B09F039
:1054D00075C0A73008F072C080E18A95F1F75A9A3A
:1054E000529AB2E0BA95F1F700C05A98EA2EF12C20
:1054F000EAE0AE9FD0011124A050BF4F1896ED9165
:10550000FC9119973097B1F06091880170918901F1
:1055100016962D913C911797260F371F13968D9154
:105520009C911497680F791F15964C9115971296B8
:105530008C9109958AE08E9DF0018F9DF00D1124CC
:10554000E050FF4F6581662351F020918801309132
:10555000890186819781820F931F0E94192A0E94D8
:105560009329F0E1FA95F1F75A9852985A9A80E106
:105570008A95F1F78AE08E9D80018F9D100D112490
:1055800000501F4FD80112966C911297662371F14B
:10559000209188013091890113968D919C91820F01
:1055A000931F0E94C529D801ED91FC91882311F029
:1055B00088E001C082E080830E948B290F90DF91F8
:1055C000CF91FF91EF91BF91AF919F918F917F917B
:1055D0006F915F914F913F912F911F910F91FF908C
:1055E000EF900F900FBE0F901F901895ED91FC91CA
:1055F000DFCF0F931F93CF93DF93EC0107970CF04E
:10560000A9C08AE08C9FF0018D9FF00D1124E0501D
:10561000FF4F80819181892B09F49CC0F894529AA4
:105620005A9885E08A95F1F700008C2F8695857051
:105630009C2F9570890F982F937086958695890F6A
:105640008E0193E0000F111F9A95E1F7082B0E943D
:10565000932900C068E0802F0E94F829A0E1AA9554
:10566000F1F752985A9A4A9B27C087E090E04A99EE
:1056700025C08AE08C9F80018D9F100D1124005061
:105680001F4FF80165816623A1F1209188013091B7
:10569000890186819781820F931F0E94C5298111FC
:1056A00028C0529A5A9AD801ED91FC9182E08083E9
:1056B000789482E090E016C000C0D5CF0197B9F48D
:1056C000529A5A9A8AE08C9FF0018D9FF00D112416
:1056D000E050FF4F0190F081E02D81E080837894CD
:1056E00081E090E0DF91CF911F910F91089500C06C
:1056F000BECF0E948B29B0E2BA95F1F75A98529A20
:10570000E0E1EA95F1F78AE08C9FF0018D9FF00DC2
:105710001124E050FF4F6281662351F020918801EF
:105720003091890183819481820F931F0E94192AED
:105730000E9493298AE08C9FF0018D9FF00D112427
:10574000E050FF4F0190F081E02D1082789490E0BE
:1057500080E0C8CF84E090E0C5CFAA1BBB1B51E11D
:1057600007C0AA1FBB1FA617B70710F0A61BB70BD1
:10577000881F991F5A95A9F780959095BC01CD0176
:10578000089597FB072E16F4009407D077FD09D0F3
:105790000E94AD2B07FC05D03EF4909581959F4F5C
:1057A0000895709561957F4F0895052E97FB1EF41F
:1057B00000940E94EC2B57FD07D00E94FA2B07FCA7
:1057C00003D04EF40C94EC2B5095409530952195D8
:1057D0003F4F4F4F5F4F089590958095709561951D
:1057E0007F4F8F4F9F4F0895EE0FFF1F0590F4914D
:1057F000E02D0994A1E21A2EAA1BBB1BFD010DC0CE
:10580000AA1FBB1FEE1FFF1FA217B307E407F50770
:1058100020F0A21BB30BE40BF50B661F771F881F4C
:10582000991F1A9469F760957095809590959B01E2
:10583000AC01BD01CF010895FC014150504030F052
:1058400001900616D1F73197CF010895882799273F
:105850000895FB01DC0104C08D910190801921F4B1
:1058600041505040C8F7881B990B0895FB01DC019B
:1058700002C001900D9241505040D8F70895F99917
:10588000FECF92BD81BDF89A992780B50895A6E113
:10589000B0E044E050E00C94792CA8E1B0E042E0A4
:1058A00050E00C94792C262FF999FECF92BD81BD42
:1058B000F89A019700B4021639F01FBA20BD0FB64E
:1058C000F894FA9AF99A0FBE08950396272F0E942A
:1058D000542C0E94532C252F0E94542C242F0C94BE
:1058E000542C0196272F0E94542C0C94532CDC012D
:1058F000CB01FC01F999FECF06C0F2BDE1BDF89ADB
:10590000319600B40D9241505040B8F70895505868
:10591000BB27AA270E949F2C0C94B72D0E94A92D6B
:1059200038F00E94B02D20F039F49F3F19F426F48E
:105930000C94A62D0EF4E095E7FB0C94772DE92F3F
:105940000E94C82D58F3BA1762077307840795079A
:1059500020F079F4A6F50C94022E0EF4E0950B2EAF
:10596000BA2FA02D0B01B90190010C01CA01A001B1
:105970001124FF27591B99F0593F50F4503E68F10C
:105980001A16F040A22F232F342F4427585FF3CF4D
:10599000469537952795A795F0405395C9F77EF41E
:1059A0001F16BA0B620B730B840BBAF09150A1F067
:1059B000FF0FBB1F661F771F881FC2F70EC0BA0FED
:1059C000621F731F841F48F4879577956795B79575
:1059D000F7959E3F08F0B0CF9395880F08F0992770
:1059E000EE0F9795879508950E94EA2D90F09F37C6
:1059F00048F4911116F40C94032E60E070E080E8F6
:105A00009FE3089526F01B16611D711D811D0C94E6
:105A10007D2D0C94982D0E94D02D88F09F5798F0E2
:105A2000B92F9927B751B0F0E1F0660F771F881FA3
:105A3000991F1AF0BA95C9F714C0B13091F00E94BD
:105A4000022EB1E008950C94022E672F782F88273C
:105A5000B85F39F0B93FCCF3869577956795B395E4
:105A6000D9F73EF490958095709561957F4F8F4F53
:105A70009F4F0895E89409C097FB3EF49095809558
:105A8000709561957F4F8F4F9F4F9923A9F0F92F04
:105A900096E9BB279395F695879577956795B79582
:105AA000F111F8CFFAF4BB0F11F460FF1BC06F5F68
:105AB0007F4F8F4F9F4F16C0882311F096E911C07A
:105AC000772321F09EE8872F762F05C0662371F09B
:105AD00096E8862F70E060E02AF09A95660F771FAF
